{
  "contractName": "Election",
  "abi": [
    {
      "inputs": [],
      "stateMutability": "nonpayable",
      "type": "constructor"
    },
    {
      "anonymous": false,
      "inputs": [
        {
          "indexed": true,
          "internalType": "uint256",
          "name": "candidateId",
          "type": "uint256"
        }
      ],
      "name": "VotedEvent",
      "type": "event"
    },
    {
      "inputs": [],
      "name": "admin",
      "outputs": [
        {
          "internalType": "address",
          "name": "",
          "type": "address"
        }
      ],
      "stateMutability": "view",
      "type": "function",
      "constant": true
    },
    {
      "inputs": [
        {
          "internalType": "uint256",
          "name": "",
          "type": "uint256"
        }
      ],
      "name": "candidates",
      "outputs": [
        {
          "internalType": "uint256",
          "name": "id",
          "type": "uint256"
        },
        {
          "internalType": "string",
          "name": "name",
          "type": "string"
        },
        {
          "internalType": "uint256",
          "name": "voteCount",
          "type": "uint256"
        }
      ],
      "stateMutability": "view",
      "type": "function",
      "constant": true
    },
    {
      "inputs": [],
      "name": "candidatesCount",
      "outputs": [
        {
          "internalType": "uint256",
          "name": "",
          "type": "uint256"
        }
      ],
      "stateMutability": "view",
      "type": "function",
      "constant": true
    },
    {
      "inputs": [
        {
          "internalType": "address",
          "name": "",
          "type": "address"
        }
      ],
      "name": "voters",
      "outputs": [
        {
          "internalType": "bool",
          "name": "",
          "type": "bool"
        }
      ],
      "stateMutability": "view",
      "type": "function",
      "constant": true
    },
    {
      "inputs": [
        {
          "internalType": "string",
          "name": "_name",
          "type": "string"
        }
      ],
      "name": "addCandidate",
      "outputs": [],
      "stateMutability": "nonpayable",
      "type": "function"
    },
    {
      "inputs": [],
      "name": "registerVoter",
      "outputs": [],
      "stateMutability": "nonpayable",
      "type": "function"
    },
    {
      "inputs": [
        {
          "internalType": "uint256",
          "name": "_candidateId",
          "type": "uint256"
        }
      ],
      "name": "vote",
      "outputs": [],
      "stateMutability": "nonpayable",
      "type": "function"
    },
    {
      "inputs": [],
      "name": "getCandidateCount",
      "outputs": [
        {
          "internalType": "uint256",
          "name": "",
          "type": "uint256"
        }
      ],
      "stateMutability": "view",
      "type": "function",
      "constant": true
    },
    {
      "inputs": [
        {
          "internalType": "uint256",
          "name": "_candidateId",
          "type": "uint256"
        }
      ],
      "name": "getCandidate",
      "outputs": [
        {
          "internalType": "uint256",
          "name": "",
          "type": "uint256"
        },
        {
          "internalType": "string",
          "name": "",
          "type": "string"
        },
        {
          "internalType": "uint256",
          "name": "",
          "type": "uint256"
        }
      ],
      "stateMutability": "view",
      "type": "function",
      "constant": true
    },
    {
      "inputs": [
        {
          "internalType": "uint256",
          "name": "_candidateId",
          "type": "uint256"
        }
      ],
      "name": "getVotesForCandidate",
      "outputs": [
        {
          "internalType": "uint256",
          "name": "",
          "type": "uint256"
        }
      ],
      "stateMutability": "view",
      "type": "function",
      "constant": true
    },
    {
      "inputs": [],
      "name": "findWinner",
      "outputs": [
        {
          "internalType": "uint256",
          "name": "",
          "type": "uint256"
        },
        {
          "internalType": "string",
          "name": "",
          "type": "string"
        },
        {
          "internalType": "uint256",
          "name": "",
          "type": "uint256"
        }
      ],
      "stateMutability": "view",
      "type": "function",
      "constant": true
    }
  ],
  "bytecode": "0x60806040523480156200001157600080fd5b50336000806101000a81548173ffffffffffffffffffffffffffffffffffffffff021916908373ffffffffffffffffffffffffffffffffffffffff160217905550620000986040518060400160405280600b81526020017f43616e6469646174652031000000000000000000000000000000000000000000815250620000e460201b60201c565b620000de6040518060400160405280600b81526020017f43616e6469646174652032000000000000000000000000000000000000000000815250620000e460201b60201c565b62000432565b60008054906101000a900473ffffffffffffffffffffffffffffffffffffffff1673ffffffffffffffffffffffffffffffffffffffff163373ffffffffffffffffffffffffffffffffffffffff161462000175576040517f08c379a00000000000000000000000000000000000000000000000000000000081526004016200016c9062000313565b60405180910390fd5b600360008154809291906200018a9062000386565b9190505550604051806060016040528060035481526020018281526020016000815250600260006003548152602001908152602001600020600082015181600001556020820151816001019080519060200190620001ea929190620001fb565b506040820151816002015590505050565b828054620002099062000350565b90600052602060002090601f0160209004810192826200022d576000855562000279565b82601f106200024857805160ff191683800117855562000279565b8280016001018555821562000279579182015b82811115620002785782518255916020019190600101906200025b565b5b5090506200028891906200028c565b5090565b5b80821115620002a75760008160009055506001016200028d565b5090565b6000620002ba60258362000335565b91507f4f6e6c792061646d696e2063616e20706572666f726d2074686973206f70657260008301527f6174696f6e0000000000000000000000000000000000000000000000000000006020830152604082019050919050565b600060208201905081810360008301526200032e81620002ab565b9050919050565b600082825260208201905092915050565b6000819050919050565b600060028204905060018216806200036957607f821691505b6020821081141562000380576200037f62000403565b5b50919050565b6000620003938262000346565b91507fffffffffffffffffffffffffffffffffffffffffffffffffffffffffffffffff821415620003c957620003c8620003d4565b5b600182019050919050565b7f4e487b7100000000000000000000000000000000000000000000000000000000600052601160045260246000fd5b7f4e487b7100000000000000000000000000000000000000000000000000000000600052602260045260246000fd5b61106b80620004426000396000f3fe608060405234801561001057600080fd5b50600436106100a95760003560e01c8063462e91ec11610071578063462e91ec1461016a57806353017872146101865780638e71decb146101b6578063a3ec138d146101d6578063ecb617d914610206578063f851a44014610210576100a9565b80630121b93f146100ae5780632d35a8a2146100ca57806330a56347146100e85780633477ee2e1461010657806335b8e82014610138575b600080fd5b6100c860048036038101906100c39190610b23565b61022e565b005b6100d26103bf565b6040516100df9190610d8e565b60405180910390f35b6100f06103c5565b6040516100fd9190610d8e565b60405180910390f35b610120600480360381019061011b9190610b23565b6103cf565b60405161012f93929190610da9565b60405180910390f35b610152600480360381019061014d9190610b23565b610481565b60405161016193929190610da9565b60405180910390f35b610184600480360381019061017f9190610ae2565b610596565b005b6101a0600480360381019061019b9190610b23565b6106a6565b6040516101ad9190610d8e565b60405180910390f35b6101be610716565b6040516101cd93929190610da9565b60405180910390f35b6101f060048036038101906101eb9190610ab9565b61085a565b6040516101fd9190610cf3565b60405180910390f35b61020e61087a565b005b610218610960565b6040516102259190610cd8565b60405180910390f35b600160003373ffffffffffffffffffffffffffffffffffffffff1673ffffffffffffffffffffffffffffffffffffffff16815260200190815260200160002060009054906101000a900460ff16156102bb576040517f08c379a00000000000000000000000000000000000000000000000000000000081526004016102b290610d6e565b60405180910390fd5b6000811180156102cd57506003548111155b61030c576040517f08c379a000000000000000000000000000000000000000000000000000000000815260040161030390610d4e565b60405180910390fd5b60026000828152602001908152602001600020600201600081548092919061033390610f20565b919050555060018060003373ffffffffffffffffffffffffffffffffffffffff1673ffffffffffffffffffffffffffffffffffffffff16815260200190815260200160002060006101000a81548160ff021916908315150217905550807fe447c5464cb203c1da94b4db8588d3cbf313ce4a489122f6b88e87f465b2810e60405160405180910390a250565b60035481565b6000600354905090565b60026020528060005260406000206000915090508060000154908060010180546103f890610eee565b80601f016020809104026020016040519081016040528092919081815260200182805461042490610eee565b80156104715780601f1061044657610100808354040283529160200191610471565b820191906000526020600020905b81548152906001019060200180831161045457829003601f168201915b5050505050908060020154905083565b600060606000808411801561049857506003548411155b6104d7576040517f08c379a00000000000000000000000000000000000000000000000000000000081526004016104ce90610d4e565b60405180910390fd5b6000600260008681526020019081526020016000209050806000015481600101826002015481805461050890610eee565b80601f016020809104026020016040519081016040528092919081815260200182805461053490610eee565b80156105815780601f1061055657610100808354040283529160200191610581565b820191906000526020600020905b81548152906001019060200180831161056457829003601f168201915b50505050509150935093509350509193909250565b60008054906101000a900473ffffffffffffffffffffffffffffffffffffffff1673ffffffffffffffffffffffffffffffffffffffff163373ffffffffffffffffffffffffffffffffffffffff1614610624576040517f08c379a000000000000000000000000000000000000000000000000000000000815260040161061b90610d0e565b60405180910390fd5b6003600081548092919061063790610f20565b9190505550604051806060016040528060035481526020018281526020016000815250600260006003548152602001908152602001600020600082015181600001556020820151816001019080519060200190610695929190610984565b506040820151816002015590505050565b600080821180156106b957506003548211155b6106f8576040517f08c379a00000000000000000000000000000000000000000000000000000000081526004016106ef90610d4e565b60405180910390fd5b60026000838152602001908152602001600020600201549050919050565b60006060600080600080600190505b600354811161077c57816002600083815260200190815260200160002060020154111561076957600260008281526020019081526020016000206002015491508092505b808061077490610f20565b915050610725565b5060026000838152602001908152602001600020600001546002600084815260200190815260200160002060010160026000858152602001908152602001600020600201548180546107cd90610eee565b80601f01602080910402602001604051908101604052809291908181526020018280546107f990610eee565b80156108465780601f1061081b57610100808354040283529160200191610846565b820191906000526020600020905b81548152906001019060200180831161082957829003601f168201915b505050505091509450945094505050909192565b60016020528060005260406000206000915054906101000a900460ff1681565b600160003373ffffffffffffffffffffffffffffffffffffffff1673ffffffffffffffffffffffffffffffffffffffff16815260200190815260200160002060009054906101000a900460ff1615610907576040517f08c379a00000000000000000000000000000000000000000000000000000000081526004016108fe90610d2e565b60405180910390fd5b60018060003373ffffffffffffffffffffffffffffffffffffffff1673ffffffffffffffffffffffffffffffffffffffff16815260200190815260200160002060006101000a81548160ff021916908315150217905550565b60008054906101000a900473ffffffffffffffffffffffffffffffffffffffff1681565b82805461099090610eee565b90600052602060002090601f0160209004810192826109b257600085556109f9565b82601f106109cb57805160ff19168380011785556109f9565b828001600101855582156109f9579182015b828111156109f85782518255916020019190600101906109dd565b5b509050610a069190610a0a565b5090565b5b80821115610a23576000816000905550600101610a0b565b5090565b6000610a3a610a3584610e18565b610de7565b905082815260208101848484011115610a5257600080fd5b610a5d848285610eac565b509392505050565b600081359050610a7481611007565b92915050565b600082601f830112610a8b57600080fd5b8135610a9b848260208601610a27565b91505092915050565b600081359050610ab38161101e565b92915050565b600060208284031215610acb57600080fd5b6000610ad984828501610a65565b91505092915050565b600060208284031215610af457600080fd5b600082013567ffffffffffffffff811115610b0e57600080fd5b610b1a84828501610a7a565b91505092915050565b600060208284031215610b3557600080fd5b6000610b4384828501610aa4565b91505092915050565b610b5581610e64565b82525050565b610b6481610e76565b82525050565b6000610b7582610e48565b610b7f8185610e53565b9350610b8f818560208601610ebb565b610b9881610ff6565b840191505092915050565b6000610bb0602583610e53565b91507f4f6e6c792061646d696e2063616e20706572666f726d2074686973206f70657260008301527f6174696f6e0000000000000000000000000000000000000000000000000000006020830152604082019050919050565b6000610c16601a83610e53565b91507f596f752061726520616c726561647920726567697374657265640000000000006000830152602082019050919050565b6000610c56601483610e53565b91507f496e76616c69642063616e6469646174652049440000000000000000000000006000830152602082019050919050565b6000610c96601683610e53565b91507f596f75206861766520616c726561647920766f746564000000000000000000006000830152602082019050919050565b610cd281610ea2565b82525050565b6000602082019050610ced6000830184610b4c565b92915050565b6000602082019050610d086000830184610b5b565b92915050565b60006020820190508181036000830152610d2781610ba3565b9050919050565b60006020820190508181036000830152610d4781610c09565b9050919050565b60006020820190508181036000830152610d6781610c49565b9050919050565b60006020820190508181036000830152610d8781610c89565b9050919050565b6000602082019050610da36000830184610cc9565b92915050565b6000606082019050610dbe6000830186610cc9565b8181036020830152610dd08185610b6a565b9050610ddf6040830184610cc9565b949350505050565b6000604051905081810181811067ffffffffffffffff82111715610e0e57610e0d610fc7565b5b8060405250919050565b600067ffffffffffffffff821115610e3357610e32610fc7565b5b601f19601f8301169050602081019050919050565b600081519050919050565b600082825260208201905092915050565b6000610e6f82610e82565b9050919050565b60008115159050919050565b600073ffffffffffffffffffffffffffffffffffffffff82169050919050565b6000819050919050565b82818337600083830152505050565b60005b83811015610ed9578082015181840152602081019050610ebe565b83811115610ee8576000848401525b50505050565b60006002820490506001821680610f0657607f821691505b60208210811415610f1a57610f19610f98565b5b50919050565b6000610f2b82610ea2565b91507fffffffffffffffffffffffffffffffffffffffffffffffffffffffffffffffff821415610f5e57610f5d610f69565b5b600182019050919050565b7f4e487b7100000000000000000000000000000000000000000000000000000000600052601160045260246000fd5b7f4e487b7100000000000000000000000000000000000000000000000000000000600052602260045260246000fd5b7f4e487b7100000000000000000000000000000000000000000000000000000000600052604160045260246000fd5b6000601f19601f8301169050919050565b61101081610e64565b811461101b57600080fd5b50565b61102781610ea2565b811461103257600080fd5b5056fea2646970667358221220b8ddf44fada2cf7ad5f9a86174d58788abaa7ac01928690f963f6e641929462f64736f6c63430008000033",
  "immutableReferences": {},
  "source": "// SPDX-License-Identifier: MIT\npragma solidity ^0.8;\n\ncontract Election {\n    address public admin; // Election Commission\n\n    struct Candidate {\n        uint id;\n        string name;\n        uint voteCount;\n    }\n\n    mapping(address => bool) public voters;\n    mapping(uint => Candidate) public candidates;\n    uint public candidatesCount;\n\n    event VotedEvent(uint indexed candidateId);\n\n    modifier onlyAdmin() {\n        require(msg.sender == admin, \"Only admin can perform this operation\");\n        _;\n    }\n\n    modifier hasNotVoted() {\n        require(!voters[msg.sender], \"You have already voted\");\n        _;\n    }\n\n    constructor () {\n        admin = msg.sender;\n        addCandidate(\"Candidate 1\");\n        addCandidate(\"Candidate 2\");\n    }\n\n    function addCandidate(string memory _name) public onlyAdmin {\n        candidatesCount++;\n        candidates[candidatesCount] = Candidate(candidatesCount, _name, 0);\n    }\n\n    function registerVoter() public {\n        require(!voters[msg.sender], \"You are already registered\");\n        voters[msg.sender] = true;\n    }\n\n    function vote(uint _candidateId) public hasNotVoted {\n        require(_candidateId > 0 && _candidateId <= candidatesCount, \"Invalid candidate ID\");\n        candidates[_candidateId].voteCount++;\n        voters[msg.sender] = true;\n        emit VotedEvent(_candidateId);\n    }\n\n    function getCandidateCount() public view returns (uint) {\n        return candidatesCount;\n    }\n\n    function getCandidate(uint _candidateId) public view returns (uint, string memory, uint) {\n        require(_candidateId > 0 && _candidateId <= candidatesCount, \"Invalid candidate ID\");\n        Candidate storage candidate = candidates[_candidateId];\n        return (candidate.id, candidate.name, candidate.voteCount);\n    }\n\n    function getVotesForCandidate(uint _candidateId) public view returns (uint) {\n        require(_candidateId > 0 && _candidateId <= candidatesCount, \"Invalid candidate ID\");\n        return candidates[_candidateId].voteCount;\n    }\n\n    function findWinner() public view returns (uint, string memory, uint) {\n        uint winnerId;\n        uint maxVotes = 0;\n\n        for (uint i = 1; i <= candidatesCount; i++) {\n            if (candidates[i].voteCount > maxVotes) {\n                maxVotes = candidates[i].voteCount;\n                winnerId = i;\n            }\n        }\n\n        return (candidates[winnerId].id, candidates[winnerId].name, candidates[winnerId].voteCount);\n    }\n}",
  "sourcePath": "/Users/azraafifahahmadkamran/election/contracts/Election.sol",
  "compiler": {
    "name": "solc",
    "version": "0.8.0+commit.c7dfd78e.Emscripten.clang"
  },
  "schemaVersion": "3.4.16",
  "updatedAt": "2023-12-30T17:48:12.773Z",
  "networkType": "ethereum",
  "devdoc": {
    "kind": "dev",
    "methods": {},
    "version": 1
  },
  "userdoc": {
    "kind": "user",
    "methods": {},
    "version": 1
  }
}